{
  "_format": "hh-sol-artifact-1",
  "contractName": "Recipient",
  "sourceName": "contracts/Recipient.sol",
  "abi": [
    {
      "inputs": [
        {
          "internalType": "address",
          "name": "forwarder",
          "type": "address"
        }
      ],
      "stateMutability": "nonpayable",
      "type": "constructor"
    },
    {
      "inputs": [
        {
          "internalType": "address",
          "name": "owner",
          "type": "address"
        }
      ],
      "name": "OwnableInvalidOwner",
      "type": "error"
    },
    {
      "inputs": [
        {
          "internalType": "address",
          "name": "account",
          "type": "address"
        }
      ],
      "name": "OwnableUnauthorizedAccount",
      "type": "error"
    },
    {
      "inputs": [],
      "name": "ReentrancyGuardReentrantCall",
      "type": "error"
    },
    {
      "anonymous": false,
      "inputs": [
        {
          "indexed": true,
          "internalType": "address",
          "name": "previousOwner",
          "type": "address"
        },
        {
          "indexed": true,
          "internalType": "address",
          "name": "newOwner",
          "type": "address"
        }
      ],
      "name": "OwnershipTransferred",
      "type": "event"
    },
    {
      "anonymous": false,
      "inputs": [
        {
          "indexed": true,
          "internalType": "address",
          "name": "sender",
          "type": "address"
        },
        {
          "indexed": false,
          "internalType": "uint256",
          "name": "amount",
          "type": "uint256"
        },
        {
          "indexed": false,
          "internalType": "string",
          "name": "paymentReference",
          "type": "string"
        }
      ],
      "name": "Paid",
      "type": "event"
    },
    {
      "inputs": [],
      "name": "getBalance",
      "outputs": [
        {
          "internalType": "uint256",
          "name": "",
          "type": "uint256"
        }
      ],
      "stateMutability": "view",
      "type": "function"
    },
    {
      "inputs": [
        {
          "internalType": "address",
          "name": "forwarder",
          "type": "address"
        }
      ],
      "name": "isTrustedForwarder",
      "outputs": [
        {
          "internalType": "bool",
          "name": "",
          "type": "bool"
        }
      ],
      "stateMutability": "view",
      "type": "function"
    },
    {
      "inputs": [],
      "name": "owner",
      "outputs": [
        {
          "internalType": "address",
          "name": "",
          "type": "address"
        }
      ],
      "stateMutability": "view",
      "type": "function"
    },
    {
      "inputs": [
        {
          "internalType": "uint256",
          "name": "amount",
          "type": "uint256"
        },
        {
          "internalType": "string",
          "name": "paymentReference",
          "type": "string"
        }
      ],
      "name": "pay",
      "outputs": [],
      "stateMutability": "payable",
      "type": "function"
    },
    {
      "inputs": [],
      "name": "renounceOwnership",
      "outputs": [],
      "stateMutability": "nonpayable",
      "type": "function"
    },
    {
      "inputs": [
        {
          "internalType": "address",
          "name": "newOwner",
          "type": "address"
        }
      ],
      "name": "transferOwnership",
      "outputs": [],
      "stateMutability": "nonpayable",
      "type": "function"
    },
    {
      "inputs": [],
      "name": "trustedForwarder",
      "outputs": [
        {
          "internalType": "address",
          "name": "",
          "type": "address"
        }
      ],
      "stateMutability": "view",
      "type": "function"
    },
    {
      "inputs": [],
      "name": "withdraw",
      "outputs": [],
      "stateMutability": "nonpayable",
      "type": "function"
    }
  ],
  "bytecode": "0x60a060405234801561001057600080fd5b5060405161073238038061073283398101604081905261002f916100c9565b6001600160a01b0381166080526001600055338061006757604051631e4fbdf760e01b81526000600482015260240160405180910390fd5b61007081610077565b50506100f9565b600180546001600160a01b038381166001600160a01b0319831681179093556040519116919082907f8be0079c531659141344cd1fd0a4f28419497f9722a3daafe3b4186f6b6457e090600090a35050565b6000602082840312156100db57600080fd5b81516001600160a01b03811681146100f257600080fd5b9392505050565b6080516106116101216000396000818160e70152818161014b015261044001526106116000f3fe60806040526004361061007b5760003560e01c8063715018a61161004e578063715018a6146101275780637da0a8771461013c5780638da5cb5b14610183578063f2fde38b146101a157600080fd5b806312065fe014610080578063154fbbc4146100a05780633ccfd60b146100b5578063572b6c05146100ca575b600080fd5b34801561008c57600080fd5b506040514781526020015b60405180910390f35b6100b36100ae36600461049a565b6101c1565b005b3480156100c157600080fd5b506100b36102b2565b3480156100d657600080fd5b506101176100e5366004610516565b7f00000000000000000000000000000000000000000000000000000000000000006001600160a01b0390811691161490565b6040519015158152602001610097565b34801561013357600080fd5b506100b36102f6565b34801561014857600080fd5b507f00000000000000000000000000000000000000000000000000000000000000005b6040516001600160a01b039091168152602001610097565b34801561018f57600080fd5b506001546001600160a01b031661016b565b3480156101ad57600080fd5b506100b36101bc366004610516565b61030a565b6101c9610345565b823410156102155760405162461bcd60e51b8152602060048201526014602482015273125b9cdd59999a58da595b9d081c185e5b595b9d60621b60448201526064015b60405180910390fd5b806102575760405162461bcd60e51b8152602060048201526012602482015271149959995c995b98d9481c995c5d5a5c995960721b604482015260640161020c565b61025f61036f565b6001600160a01b03167f301e53e15e76435e17105dd850449ba166cf4c46826c93a338cb73191b5a742084848460405161029b93929190610546565b60405180910390a26102ad6001600055565b505050565b6102ba61037e565b6001546040516001600160a01b03909116904780156108fc02916000818181858888f193505050501580156102f3573d6000803e3d6000fd5b50565b6102fe61037e565b61030860006103dc565b565b61031261037e565b6001600160a01b03811661033c57604051631e4fbdf760e01b81526000600482015260240161020c565b6102f3816103dc565b60026000540361036857604051633ee5aeb560e01b815260040160405180910390fd5b6002600055565b600061037961042e565b905090565b61038661036f565b6001600160a01b03166103a16001546001600160a01b031690565b6001600160a01b031614610308576103b761036f565b60405163118cdaa760e01b81526001600160a01b03909116600482015260240161020c565b600180546001600160a01b038381166001600160a01b0319831681179093556040519116919082907f8be0079c531659141344cd1fd0a4f28419497f9722a3daafe3b4186f6b6457e090600090a35050565b600036601480821080159061046b57507f00000000000000000000000000000000000000000000000000000000000000006001600160a01b031633145b156104925761047f3682840381600061057c565b610488916105a6565b60601c9250505090565b339250505090565b6000806000604084860312156104af57600080fd5b83359250602084013567ffffffffffffffff808211156104ce57600080fd5b818601915086601f8301126104e257600080fd5b8135818111156104f157600080fd5b87602082850101111561050357600080fd5b6020830194508093505050509250925092565b60006020828403121561052857600080fd5b81356001600160a01b038116811461053f57600080fd5b9392505050565b83815260406020820152816040820152818360608301376000818301606090810191909152601f909201601f1916010192915050565b6000808585111561058c57600080fd5b8386111561059957600080fd5b5050820193919092039150565b6bffffffffffffffffffffffff1981358181169160148510156105d35780818660140360031b1b83161692505b50509291505056fea26469706673582212202fab17424daf0420ebe5fe65e6ecc56db41851971b028e9fb212eaf6d01d2b4964736f6c63430008140033",
  "linkReferences": {},
  "deployedLinkReferences": {}
}